:020000040800F2
:1000000060060020B10100087102000869020008C2
:100010006D02000863020008C5030008000000002C
:100020000000000000000000000000007502000851
:100030006702000800000000730200086103000866
:10004000CB010008CB010008CB010008CB01000860
:10005000CB010008CB010008CB010008CB01000850
:10006000CB010008CB010008CB010008CB01000840
:10007000CB010008CB010008CB010008CB01000830
:10008000CB010008CB010008CB010008CB01000820
:10009000CB010008CB010008CB010008CB01000810
:1000A000CB010008CB010008CB010008CB01000800
:1000B000CB010008CB010008CB010008CB010008F0
:1000C000CB010008CB010008CB010008CB010008E0
:1000D000CB010008CB010008CB010008CB010008D0
:1000E000CB010008CB010008CB010008CB010008C0
:1000F000CB010008CB010008CB010008CB010008B0
:10010000CB010008CB010008CB010008CB0100089F
:10011000CB010008CB010008CB010008CB0100088F
:10012000CB010008CB010008CB010008CB0100087F
:1001300000F002F800F02CF80AA090E8000C8244CD
:100140008344AAF10107DA4501D100F021F8AFF2AA
:10015000090EBAE80F0013F0010F18BFFB1A43F0A5
:1001600001031847980A0000A80A00000023002491
:1001700000250026103A28BF78C1FBD8520728BFB7
:1001800030C148BF0B6070471FB51FBD10B510BD13
:1001900000F031F81146FFF7F7FF00F061F900F0C9
:1001A0004FF803B4FFF7F2FF03BC00F053F8000070
:1001B0000948804709480047FEE7FEE7FEE7FEE7FB
:1001C000FEE7FEE7FEE7FEE7FEE7FEE70448054937
:1001D000054A064B7047000065030008310100081E
:1001E0006000002060060020600200206002002005
:1001F000704770477047754600F028F8AE46050016
:100200006946534620F00700854618B020B5FFF731
:10021000DDFFBDE820404FF000064FF000074FF033
:1002200000084FF0000B21F00701AC46ACE8C00914
:10023000ACE8C009ACE8C009ACE8C0098D4670471D
:100240000446AFF300802046FFF7ABFF004870473D
:100250000000002001491820ABBEFEE72600020086
:10026000704700BFFEE7704700BFFEE700BFFEE734
:1002700070477047704710B500F002F810BD0000DD
:100280000CB50020019000903348006840F48030A5
:100290003149086000BF3048006800F40030009029
:1002A0000198401C0190009818B90198B0F5A06F12
:1002B000F1D12948006800F4003010B1012000900D
:1002C00001E0002000900098012843D123480068F5
:1002D00040F01000214908600846006820F0030043
:1002E00008600846006840F0020008601A4840684C
:1002F000194948600846406848600846406840F42C
:10030000806048600846406820F47C1048600846D9
:10031000406840F4E81048600846006840F080708B
:10032000086000BF0C48006800F000700028F9D099
:100330000948406820F003000749486008464068C3
:1003400040F00200486000BF0348406800F00C0025
:100350000828F9D10CBD0000001002400020024026
:100360007047000010B51348006840F001001149C3
:10037000086008464068104908400E494860084631
:1003800000680E4908400B4908600846006820F4E0
:10039000802008600846406820F4FE0048604FF462
:1003A0001F008860FFF767FF4FF000600449086096
:1003B00010BD0000001002400000FFF8FFFFF6FE35
:1003C00008ED00E000BFFEE700202349096841F482
:1003D0008031214A116000BF1F490968C1F34041C3
:1003E0000029F9D01D49096841F032011B4A11600A
:1003F0001949496821F0F001174A516011464968CE
:1004000021F4605151601146496841F480615160A6
:100410001146496841F4803151601146496841F400
:10042000E01151601146096841F08071116000BF10
:1004300009490968C1F340610029F9D006494968B2
:1004400041F00201044A516003E003494968C1F3E5
:1004500081000228F9D170470010024000200240BC
:1004600088B013A30FCBCDE90623CDE9040114A274
:1004700007CA01AB07C3FFF7A7FF4FF41651482087
:1004800000F030F84FF41651242000F089F80F489E
:1004900000F01EF804A9012000F0E0F806E001A930
:1004A000022000F0DBF8094800F012F8F7E700003E
:1004B000313135353231323739390D0A000000001B
:1004C00048656C6C6F210D0A0000000000DD6D00B6
:1004D00001B502E00098401E009000980028F9D174
:1004E00008BD00002DE9F05F04460D46280100F02C
:1004F00025FA8146264904FB01F000F01FFA8246E6
:10050000494600F039F90646304600F0F7F987B25F
:10051000384600F013FA8346314600F0EFFA82467F
:100520004FF0834100F01EFA814600F0E7F9804663
:100530001848806940F004001649886108468069BF
:1005400040F4804088611448006820F47F601249BC
:1005500008600846006840F40B6008600D48C068F9
:1005600040F480400B49C8600846C06820F48040D1
:10057000C86008EB071009490880081D008842F28E
:10058000080108430549091D0880BDE8F09F0000E7
:1005900040420F00001002400408014008380140AA
:1005A0002DE9F05F04460D46280100F0C7F98146A9
:1005B000264904FB01F000F0C1F98246494600F0EB
:1005C000DBF80646304600F099F987B2384600F06D
:1005D000B5F98346314600F091FA82464FF08341E7
:1005E00000F0C0F9814600F089F98046184880691A
:1005F00040F00400164988610846C06940F40030A4
:10060000C8611448006820F47F4012490860084619
:10061000006840F40B4008600D48006940F4003069
:100620000B4908610846006920F40030086108EBB6
:10063000071009490880081D008842F20801084394
:100640000549091D0880BDE8F09F000040420F00E9
:1006500000100240000801400844004010B5024666
:1006600000201EE0012A0AD100BF104B1B8803F0B6
:100670008003002BF9D00B5C0C4C241D2380022A34
:100680000AD100BF0A4B1B8803F08003002BF9D06E
:100690000B5C074C241D2380FF2800D104E0431C81
:1006A000D8B20B5C002BDDD100BF10BD003801407B
:1006B0000044004090EA010F48BF81F0004100F182
:1006C0002E82421A3CBF801A89184FEAD0524FF04E
:1006D0007F4C1CEA410FA2EBD15318BF9CEA026F7A
:1006E00000F03B804FF0004C4CEA00204CEA012126
:1006F00021FA03FC10EB0C0C1ED202F1FF325FEA70
:100700001C2040EBC25038BF70471CF07F0F4FEAEF
:10071000400C18BFBCF17F4F38BF7047C3F12003B6
:10072000994008BF20F00100BCF17F4F38BF7047EF
:10073000A0F1C04000F0DDB94FEA3C00000A40EBF8
:10074000C25028BF1CF0FF0F4FEA400CE6D018BF84
:10075000BCF17F4F38BF7047EAE79CEA026F05D0D3
:1007600010EA5C0F08BF00F00040704710B500F0C1
:100770007AF900BF64FBBE3E4FF47F0C1CEAD01236
:100780001EBF1CEAD11392EA0C0F93EA0C0F00F083
:10079000858090EA010F48BF42F4807240F4000C5B
:1007A00041F400002CF07F4120F07F4000B58142F1
:1007B000A2EB03020FF2081CACEB504EC0F100009C
:1007C0009EF800E04FEA4E0E00FB0EFC38BF4900D9
:1007D0004FEA2C1C02F5FA020CFB0EF34FEACE1E78
:1007E0004FEA112C4FEAC1210EEB635E42EB22422D
:1007F0000EFB0CFC4FEA1C5300FB03114FEA112CBB
:100800004FEA01310EFB0CFC4FEADC4C00FB0C11F3
:10081000C14228BF09184CEB03335DF804EB10EB21
:10082000410143EBC250B2F57C0F38BF704729D568
:1008300012F0F00F1CBF00F1C04000F00040704704
:10084000008182838485868788898B8C8D8E8F91A9
:100850009293959697999A9C9D9FA0A2A3A5A7A8CD
:10086000AAACAEB0B2B3B5B7B9BCBEC0C2C5C7C9F9
:10087000CCCED1D4D7D9DCDFE2E6E9ECF0F3F7FA5D
:10088000FE0000004FEA400C0CF1807CBCF17E4F72
:1008900028BF7047B0F1C04000F02BB990EA010FBB
:1008A0000CEAD11348BF42F48072624538BF6345F9
:1008B00007D213F47F0F16D080EA010000F0004049
:1008C000704710B500F0CFF8097EFC3E00F005B887
:1008D00080EA010000F00040704780EA010000F06B
:1008E000004000F006B912F47F0F04BF02487047C1
:1008F00080EA010000F0FDB80000C07FC10DD1F119
:100900009E0206DB4FEA002343F0004323FA02F085
:100910007047004207D54FEA4001B1F1FE4F02D2C5
:100920004FF00000704710B500F09DF84992248008
:10093000002070476FEA200070470000B0FA80F393
:1009400010FA03F2C3F19D030AD0D90501EB12207E
:10095000530638BF704700F1010008BF20F00100C6
:10096000704700004FF47F0C1CEAD0121EBF1CEA37
:10097000D11392EA0C0F93EA0C0F00F0478090EA33
:10098000010F48BF42F480724FF0004C4CEA002047
:100990004CEA012102EB0302A0FB0113A2F50002C5
:1009A000002918BF43F001035B0028BF4FEA33035F
:1009B00042EB22425FEA132C4CEBC2502EBFBCEB41
:1009C000436FB2F57C0F70474FEA036CBCF1004FE8
:1009D00008BF20F00100B2F57C0F38BF70470BD57F
:1009E00082F0FF0212F5803FC8BF704700F1C0409F
:1009F000D8BF00F00040704700F5000C5FEA4C0CD7
:100A000048BF7047B0F1C04000F073B890EA010FE2
:100A10000CEAD11348BF42F48072624538BF634587
:100A200004D280EA010000F00040704710B500F0E9
:100A30001AF800BF8900013E00F007B800F009B8BD
:100A40005FEA410C5FEA1C6C08D080EA010000F00C
:100A500050B85FEA400C5FEA1C6CF6D14FF00040E2
:100A6000A0F5800070470EF1020E2EF0030E5EF826
:100A7000044B244204D44FEA4102B2F17F4F11D813
:100A80004FEA4003B3F17F4F0CD80ED14FEAD07C30
:100A9000B2F17F4F0CEB4C0C0CF1020C08BF4CEB8D
:100AA000D17C04E04FF0080C01E04FEAD17C0CEB64
:100AB0004C0324FA03F404F00704B4F1040C06D246
:100AC0000EEB840CBDE810404CF0010C6047DFE8F1
:100AD0000CF0070802024FF00040A0F5800010BDA6
:100AE0000846420018BFD2F1807288BF00F0004073
:100AF00010BDFF2141EAD050C005704780F0004092
:100B000090EA010F7FF5DDAD81F0004100F007B8FC
:100B100090EA010F48BF81F000413FF5D2AD421A83
:100B200004D882F00042A0EB020011444FEAD052F8
:100B30004FF07F4C1CEA410FA2EBD15318BF9CEA47
:100B4000026F4AD04FF0004C4CEA00204CEA0121E1
:100B500021FA03FCB0EB0C0C0FD412F0FE0F36D0D0
:100B60005FEA4C001DD5001240EBC25038BF704701
:100B70001CF03F0F18BF70470BE0A2F101025FEAC3
:100B80001C2040EBC25038BF70471CF07F0F18BFCD
:100B90007047C3F12003994014BF401E20F00100AC
:100BA000704780084FEA122308BF7047B0FA80FCF4
:100BB000A2EB0C02CCF1280C60FA0CF093EA122F95
:100BC00004BF00EBC25070474FEAC3707047130A6E
:100BD0005FEADC1008BF7047F6E79CEA026F04D0BA
:100BE00010EA5C0F08BF0020704710B5FFF73BFF0D
:100BF00040DFF63E81F00040704700000C0C00081A
:0C0C000000000020600600006C010008ED
:04000005080001B13D
:00000001FF
