:020000040800F2
:1000000000100020550200086D1E0008711900083C
:10001000691E000879070008592300080000000045
:10002000000000000000000000000000851E000825
:10003000C1070008000000006F1E00080D21000825
:100040006F0200086F0200086F0200086F020008CC
:100050006F0200086F0200086F0200086F020008BC
:100060006F0200086F0200086F0200086F020008AC
:100070006F0200086F0200086F0200086F0200089C
:100080006F0200086F0200086F0200086F0200088C
:100090006F0200086F0200086F0200086F0200087C
:1000A0006F0200086F0200086F0200086F0200086C
:1000B0006F020008A92100086F0200086F02000803
:1000C0006F0200086F0200086F0200086F0200084C
:1000D0006F0200086F0200086F0200086F0200083C
:1000E0006F0200086F0200086F0200086F0200082C
:1000F0006F0200086F0200086F0200086F0200081C
:100100006F0200086F0200086F0200086F0200080B
:100110006F0200086F0200086F0200086F020008FB
:100120006F0200086F0200086F0200086F020008EB
:1001300000F002F800F064F80AA090E8000C824495
:100140008344AAF10107DA4501D100F059F8AFF272
:10015000090EBAE80F0013F0010F18BFFB1A43F0A5
:10016000010318473C3900005C3900000A444FF095
:10017000000C10F8013B13F0070408BF10F8014B06
:100180001D1108BF10F8015B641E05D010F8016B4B
:10019000641E01F8016BF9D113F0080F1EBF10F8AF
:1001A000014BAD1C0C1B09D16D1E58BF01F801CBD2
:1001B000FAD505E014F8016B01F8016B6D1EF9D555
:1001C0009142D6D37047000000230024002500266A
:1001D000103A28BF78C1FBD8520728BF30C148BFAA
:1001E0000B607047642900F0B980732900F08982A0
:1001F000002070471FB500F09EF91FBD10B510BD5F
:1002000000F083FA1146FFF7F5FF02F081FB00F0E2
:10021000A1FA03B4FFF7F2FF03BC00F0A7FA000055
:100220000B49D1F800C04A685CF8043B10681844D8
:1002300042F8040B8C4528BFA1F1DC0C8A4228BF90
:10024000A1F1DC02C1F800C04A6020F00040704714
:10025000980900200948804709480047FEE7FEE763
:10026000FEE7FEE7FEE7FEE7FEE7FEE7FEE7FEE766
:1002700004480549054A064B704700001121000853
:1002800031010008000A002000100020000C0020AE
:10029000000C00200FB41CB5074B06AA7B4469462E
:1002A0000090059800F003FA0020694600F012FA69
:1002B0001CBC5DF814FB00003504000070B504465A
:1002C00085690068C10601D5302600E02026C007F8
:1002D00007D070BDD4E9012130469047206A401C08
:1002E00020626D1EF6D570BD70B504468569007834
:1002F000C00707D170BDD4E9012120209047206AB2
:10030000401C20626D1EF6D570BD70B50C460546CA
:10031000012A05D02878800600D5EA69002302E08A
:10032000012305E05B1C934202D2E05C0028F9D176
:10033000A869E618C01AA861286A184428622846E5
:10034000FFF7BCFF04E0D5E9012114F8010B904749
:10035000B442F8D32846FFF7C7FF70BD2DE9F0413E
:100360000646002410687529314616A510D0AFF353
:100370000080002802DA404213A507E031688A07AE
:1003800001D512A502E0490704D511A5012401E019
:10039000AFF3008000210A2206F1240709E0B0FB38
:1003A000F2FCB0FBF2F302FB1C003030785418462C
:1003B000491C0028F3D123462A463046BDE8F041C7
:1003C00000F016B9000000002D0000002B00000016
:1003D000200000002DE9F05F894604464FF0000A36
:1003E000DFF824B1FB44C0F820A02046E16888472C
:1003F00000287DD0252806D0D4E901219047206A25
:10040000401C2062F1E700255F462046E1688847EE
:100410002028064607DB312E05D2B81910F8200C2B
:1004200008B10543F1E7A80701D525F00405C4F894
:100430001CA00027C4F818A02A2E09D0304601F0CD
:100440008DFF38B304EB8708303EC8F8186019E018
:1004500059F8041B204604EB87029161E168884744
:10046000012F064618D1E069002820DA25F0200582
:100470001DE0D8F8180000EB800006EB4000303893
:10048000C8F818002046E1688847064601F066FF74
:100490000028EED1012F0AD02E2E08D12046E16887
:1004A00088477F1C0646022F45F02005C4DBA06963
:1004B000002803DA404245F00105A061E80701D0B9
:1004C00025F01005A6B1A6F14100192802D8203662
:1004D00045F400654A463146204625604D46FFF703
:1004E00081FE60B1012807D0ED1D25F0070000E076
:1004F00007E000F1080978E705F1040975E73046DF
:100500007AE7206ABDE8F09F103000000B4910B573
:10051000A1F17C020A4CC2E93712372106E000EB58
:10052000104342F82130074B00FB03400B1EA1F1A2
:100530000101F4DC10BD0120E8E7000038090020CB
:10054000E119D666CD0D010010B5431C02E010F88C
:10055000011B71B18107FAD14FF0013202C88C1A28
:100560008C4314EAC211F9D0C01A0A0603D0C01E87
:1005700010BDC01A10BD0A0401D0801E10BD0902B2
:10058000FCD0401E10BD10B5203AC0F00B80B1E881
:100590001850203AA0E81850B1E81850A0E81850B8
:1005A000BFF4F5AF5FEA027C24BFB1E81850A0E8C1
:1005B000185044BF18C918C0BDE810405FEA827CDB
:1005C00024BF51F8043B40F8043B08BF7047D207F2
:1005D00028BF31F8023B48BF11F8012B28BF20F893
:1005E000023B48BF00F8012B7047704770477047C7
:1005F0002DE9F0470D4699469246044600F124083D
:100600000168880604D5E06921F01001216000E04E
:100610000120A84201DD471B00E00027A1697A19EB
:1006200002EB0900081AA0612078C00602D4204617
:10063000FFF744FE002608E0D4E901211AF806007D
:100640009047206A401C761C20624E45F4DB2078DF
:10065000C0060AD52046FFF731FE06E0D4E90121A5
:1006600030209047206A401C2062381EA7F1010705
:10067000F4DC07E0D4E9012118F805009047206A6E
:10068000401C2062281EA5F10105F3DC2046FFF77F
:100690002BFE2078000602D50220BDE8F08701205D
:1006A000FBE7000001694A1C02610878704700B549
:1006B0008FB0CDE901310021059105497944CDE99B
:1006C000031011466846FFF785FE0FB000BD00001D
:1006D000E5FFFFFF0A6802F8010B0A60704710B5DA
:1006E000436913B1AFF3008001E0FFF70EFE012074
:1006F00010BD127800F124010A7000224A70012214
:10070000EDE711684FF0FF32E9E7754600F028F891
:10071000AE4605006946534620F00700854618B0EE
:1007200020B5FFF7A5FDBDE820404FF000064FF0D3
:1007300000074FF000084FF0000B21F00701AC4616
:10074000ACE8C009ACE8C009ACE8C009ACE8C00935
:100750008D4670470446AFF300802046FFF759FDF1
:1007600000487047A0090020704700000149182088
:10077000ABBEFEE72600020000BFFEE74FF480702C
:100780000149086070470000140C01404FF480706C
:100790000149086070470000100C01402020014909
:1007A00008607047100C0140202001490860704724
:1007B00010180140202001490860704714180140BA
:1007C0007047000070B58AB075480068052813D1DD
:1007D0007448006802280DDB72480068022801D1C5
:1007E000032011E06F480068032801D104200BE0CA
:1007F000052009E0002007E06948006800EB4000A0
:10080000694901EBC0008068054665480068052815
:1008100007D164480068042801DB012009E00020BA
:1008200007E05F48006800EB40005F4901EBC00053
:10083000006906465D4800685D490968884212D033
:100840005A485CA1026802A8FFF724FD00204FF679
:10085000FF7302AA05210090084602F027F85348CA
:100860000068534908604E48006805282AD14D4861
:10087000006853490968884224D04A48006805281E
:1008800007DA48480268521C4EA102A8FFF702FD91
:1008900003E04FA102A8FFF7FDFC10204FF4967370
:1008A000F02200210090084601F04CFE002340F2A7
:1008B000FF7202A94FF4967001F05AFC39480068A3
:1008C0003F490860002416E00E200090444800EBE9
:1008D000C4008088C0EB00102F3083B2404830F84D
:1008E0003400C0EB0010C01D81B20E2248F210404F
:1008F00001F028FE641CAC42E6DBE6B1002416E001
:100900000E200090374800EBC4008088C0EB001038
:100910002F3083B2334830F83400C0EB0010C01DD4
:1009200081B20E2248F21F0001F00CFE641C2E481A
:1009300000688442E4DB2D4A9288C2EB02122F3217
:1009400091B22A4A1288C2EB0212D21D90B2002341
:10095000012200F04FF800241BE00E20244A02EB95
:10096000C40200909288C2EB02122F3293B2204A46
:1009700032F83420C2EB0212D21D91B214B940F207
:10098000FF7201E04FF4FC6210460E2201F0DAFD26
:10099000641C1748D0F82003A042DEDC0AB070BD0A
:1009A0003C0000205800002068000020300000209B
:1009B0004C00002053636F72653A202564202000AC
:1009C000600000204C6576656C2025640000000006
:1009D0005370656564205570204D6F64650000009C
:1009E000C4040020EC0400202C000020240000207F
:1009F000980100202DE9F84F8046894614461D468F
:100A000000263DE0002738E0C6EB06101E490844EA
:100A100010F807B0BBF1000F01D1AA461BE0BBF1F3
:100A2000010F09D0BBF1020F09D0BBF1030F09D0B0
:100A3000BBF1040F0CD108E04FF4784A0AE04FF400
:100A4000FC6A07E048F6222A04E04FF6FF7A01E04C
:100A5000AA4600BF00BFAA4502D1012C00DD0BE071
:100A600006FB049083B207FB048081B22246504605
:100A7000009401F067FD00BF7F1C0F2FC4DB761CC4
:100A80000F2EBFDBBDE8F88FAC2B000838B506246D
:100A90004FF62055E1202F230222052100904FF42C
:100AA000784001F04FFDE1202F230222E821009041
:100AB0004FF4784001F046FD02202D23E522052168
:100AC00000904FF4784001F03DFD02204FF4887310
:100AD000E522052100904FF4784001F033FD2B23EF
:100AE000224603212846009401F02CFDC4F1EC01BC
:100AF0002B2322462846009401F024FDC4F58A7376
:100B0000224603212846009401F01CFDC4F58A7397
:100B1000C4F1EC0122462846009401F013FD38BDD3
:100B200000B58BB01A481BA1026806A8FFF7B2FBFC
:100B30004FF4784001F092FC4FF478434FF6FF7287
:100B400018A16E2001F014FB4FF478434FF6FF72AA
:100B500006A98C2001F00CFB1548006805280DD172
:100B6000144815A1026801A8FFF794FB4FF47843DD
:100B70004FF6FF7201A9A02001F0FAFA4FF4784372
:100B80004FF6E07210A1BE2001F0F2FA0BB000BDEA
:100B90003000002046696E616C2053636F72653AC5
:100BA0002025640047414D45204F56455200000026
:100BB0003C00002034000020486967682053636FC0
:100BC00072653A2025640000507265737320535497
:100BD00041525420746F20436F6E74696E756500C6
:100BE00000B585B00F4810A102686846FFF752FBB8
:100BF0001F2001F033FC1F234FF6E0720EA16E2080
:100C000001F0B6FA1F234FF6FF7269468C2001F0FF
:100C1000AFFA1F234FF6FF720AA1BE2001F0A8FA17
:100C200005B000BD3000002046696E616C20536342
:100C30006F72653A20256400594F552057494E215F
:100C400000000000507265737320535441525420C9
:100C5000746F20436F6E74696E75650008B500206F
:100C600001F0FCFB00234FF4FC6222A11E2001F0E6
:100C70007FFA00204FF6E07324A2462100901E2048
:100C800001F014FE00204FF6E07325A256210090DB
:100C90000A2001F00BFE002048F21F0325A26E215E
:100CA00000900A2001F002FE002048F2104327A223
:100CB0008C2100900A2001F0F9FD00204FF47843C8
:100CC00028A2AA2100900A2001F0F0FD00204FF692
:100CD000FF7329A2C82100900A2001F0E7FD00233C
:100CE00040F2FF722AA14FF4827001F041FA01F044
:100CF00071F908BD507265737320535441525420EA
:100D0000746F20436F6E74696E7565002845786353
:100D1000657074204C6576656C20312900000000F8
:100D2000352E20446F6E2774206869742057616CDB
:100D30006C730000342E2041766F69642050555248
:100D4000504C4520506F69736F6E0000332E204168
:100D5000766F696420475241592053746F6E6573F2
:100D600000000000322E204561742052454420418D
:100D700070706C6573000000312E2055736520443F
:100D80002D50616420746F204D6F76650000000067
:100D9000494E535452554354494F4E53000000009E
:100DA00010B5002001F05AFB00234FF4FC6208A1AB
:100DB000502001F0DDF900234FF6E07208A16E200B
:100DC00001F0D6F900F018F801F004F910BD0000A8
:100DD00053656C6563742061204C6576656C00001A
:100DE0005573652055502F444F574E20746F205334
:100DF000656C65637400000070B58CB018221849EA
:100E000001A8FFF7C0FB002426E0164800688442D2
:100E100001D1002001E04FF6FF700546114800683F
:100E2000844202D14FF6E07000E00020064601A89F
:100E300050F824200CA107A8FFF72CFAC4F10501F3
:100E400001EB81018C2202EB810188B233462A46F4
:100E500007A901F08DF9641C062CD6DB0CB070BD1F
:100E6000902C000840000020252D31337300000035
:100E7000F8B5502078238C223221009048F210409F
:100E800001F060FB502078238C22322100904FF635
:100E9000FF7001F018FB48F210434FF6FF721BA1E0
:100EA000822001F065F91C48006808B9002001E0C3
:100EB0004FF6FF7004461848006810B94FF6E0700E
:100EC00001E048F21040054613480068012801D1AE
:100ED000002001E04FF6FF7006460F480068012829
:100EE00002D14FF6E07001E048F210400746234679
:100EF0000AA2A5214620009501F0D8FC334609A29C
:100F0000A5218220009701F0D1FCF8BD47616D65F5
:100F10002050617573656400500000205265737540
:100F20006D65000051756974000000002DE9F84FEF
:100F30008046894614461F4600254FE000264AE0B9
:100F4000C5F12700274951F8200010F806B0BA462D
:100F5000BBF1590F1DD00CDCBBF1340F1FD0BBF11E
:100F6000420F10D0BBF1470F16D0BBF1520F22D168
:100F70000CE0BBF1640F1BD0BBF1670F15D0BBF1C8
:100F8000790F18D10EE04FF0000A15E04FF4784ABF
:100F900012E04FF6E07A0FE04FF4FC6A0CE04FF6F7
:100FA000FF7A09E04BF2805A06E04FF4806A03E0D2
:100FB0004FF4007A00E000BF00BFBA450AD005FB3D
:100FC000049083B206FB048081B22246504600940E
:100FD00001F0B8FA761C282EB2DB6D1C282DADDB93
:100FE000BDE8F88FF8000020F0B589B043A2D2E93F
:100FF00000109268CDE90702069143A2D2E90010E1
:101000009268CDE90402039142A00068029042A0D8
:1010100000680190002001F021FA0023032228211A
:101020002A20FFF7E7FC002302221E217520FFF78C
:101030007DFF00234FF6E07238A1822001F098F87E
:1010400000234FF4FC623BA1A02001F091F88A2715
:10105000C7F1F00000EBD071C1F34F0505F15A0064
:1010600086B200240DE0002006A900900A5D05EB81
:10107000C40188B24FF6FF73C82101F065FB601C04
:1010800084B20A2CEFDB00240DE0002002A90090BE
:101090000A5D06EB041188B24FF6FF73C82101F018
:1010A000A7FB601C84B2032CEFDB00240DE00020C2
:1010B00003A900900A5D05EBC40188B24FF6FF73E7
:1010C000DC2101F041FB601C84B20A2CEFDB002420
:1010D0000DE0002001A900900A5D06EB041188B222
:1010E0004FF6FF73DC2101F083FB601C84B2032CFC
:1010F000EFDB00F06FFF09B0F0BD00003131353596
:101100003231333038320000313135353231323717
:1011100039390000000102000304050050726573B4
:101120007320535441525420746F20626567696E76
:1011300000000000536E616B652047616D65000023
:1011400010B53D480078002875D03C48006800285C
:1011500063D13948007800F0100078B13848D0F8F1
:101160002803002867D13649C1F8240301213448F7
:10117000C0F828130120314908605CE02E4800784F
:1011800000F0200078B12E48D0F82803002852D172
:101190002B49C1F82403411E2948C0F82813012017
:1011A0002649086047E02448007800F0400080B1FC
:1011B0002348D0F8240300BB4FF0FF302049C1F88A
:1011C000240300211E48C0F8281301201B49086091
:1011D00031E01948007800F0800078B11848D0F864
:1011E000240350B901201649C1F8240300211448F2
:1011F000C0F828130120114908601CE0114800784C
:1012000000F00400B8B104200F49087000200F4915
:101210000860322000F02CFE0DE00A48007800F053
:10122000040040B104200849087000200749086004
:10123000322000F01DFE10BD1C00002064000020C4
:10124000980100201E0000203800002050000020DF
:1012500030B587B03D48006800EB40003C4901EBE9
:10126000C00500203B490860401E3B4908603B49DF
:101270002868086000203A4908603A490860334805
:101280000068052807D1002037490860401E37490B
:1012900008603749086003203649C1F82003072059
:1012A000086048600620886007213248C160052038
:1012B0003049086107212F48416101202D49C1F8BB
:1012C000240300212B48C0F82813002405E02A49F4
:1012D00001EBC40000F0EAFA641CA868A042F6DC46
:1012E000286960B1002405E0244901EBC40000F046
:1012F000DDFA641C022CF7DB02201A490860204842
:1013000000F0D4FA002001F0A9F8FFF7BFFB0F4866
:10131000006805280ED11B481BA1026802A8FEF731
:10132000B9FF00204FF6FF7302AA19210090052093
:1013300001F0BCFA00204FF6E07317A205210090DF
:10134000782001F0B3FA07B030BD00003C00002067
:1013500068000020300000204C00002044000020E5
:10136000480000202C000020580000205C000020D5
:101370006000002098010020C4040020EC0400203C
:101380002400002034000020486967682053636F00
:1013900072653A20256400005072657373205345CE
:1013A0004C4543542050617573650000F0B58BB017
:1013B0002022374901A8FFF7E6F8364800680528DB
:1013C0000DD135480068032807DB3348006803283F
:1013D00001D104200BE0052009E0002007E02D48A2
:1013E000006800EB40002D4901EBC0008068074613
:1013F000002449E0FEF714FF0646C01706EB907084
:101400008010A6EB8005264850F8340001A951F859
:10141000351008440990224800EBC400406801A937
:1014200001EBC501496808440A90099800282ADBA5
:1014300009980F2827DA0A98002824DB0A980F2831
:1014400021DA01231A46DDE9090100F0D1FBD0B908
:101450000F200090124800EBC4008088C0EB001001
:101460002F3083B20E4830F83400C0EB0010C01D9E
:1014700081B20F22002001F065F8094800EBC4009A
:10148000DDE9091206C0641CBC42B3DB0BB0F0BD41
:10149000A82C00083C000020580000206800002014
:1014A000C404002000B589B0002000F0D7FFFFF78A
:1014B000EDFA14480068052812D1134813A10268F8
:1014C00001A8FEF7E7FE00204FF6FF7301AA1921DD
:1014D0000090052001F0EAF94FF0FF300F49086055
:1014E00000204FF6E0730EA205210090782001F055
:1014F000DDF94FF0FF300F490860FFF763F909B0DD
:1015000000BD00003C0000203400002048696768EE
:101510002053636F72653A2025640000600000204C
:1015200050726573732053454C4543542050617588
:10153000736500004C00002070B58CB04FF0FF3692
:101540000020CE490860CE480068052804D104ADCB
:10155000284600F0F1FA06E0C948006800EB4000B8
:10156000C84901EBC005C8480068C749D1F8241331
:1015700008440A90C4484168D0F8280308440B90F6
:10158000686880B10A98002808DB0A980F2805DAF5
:101590000B98002802DB0B980F2818DB0520BB49AD
:1015A00008700CB070BD0A98002801DA0E200A906D
:1015B0000A980F2801DB00200A900B98002801DA16
:1015C0000E200B900B980F2801DB00200B900024BD
:1015D00011E0AF4951F834100A9888420AD1AC4959
:1015E00001EBC4010B984968884203D10520A74943
:1015F0000870D6E7641CA868A042EADCA248D0F8CC
:101600002003042818DB012411E09F4951F834100D
:101610000A9888420AD19C4901EBC4010B98496899
:10162000884203D1052099490870BAE7641C96489E
:10163000D0F82003A042E8DC2869B0B100240FE014
:10164000944951F834100A98884208D1914901EB25
:10165000C4010B984968884201D1264604E0641C05
:101660008D4800688442EBDB00BF701C00286ED000
:10167000962000F0FDFB0F200090864800EBC6008E
:101680008088C0EB00102F3083B2824830F83600DB
:10169000C0EB0010C01D81B20F22002000F052FFED
:1016A0007948D0F82003401E774901EBC00103C9F7
:1016B000CDE902010F2000900398C0EB00102F30FD
:1016C00083B20298C0EB0010C01D81B20F2200202F
:1016D00000F038FF6C48D0F82003012819DD6A4873
:1016E000D0F82003801E684901EBC00103C9CDE991
:1016F00002010F2000900398C0EB00102F3083B23E
:101700000298C0EB0010C01D81B20F22002000F033
:1017100019FF5D48D0F82003401E5B49C1F8200343
:101720000846D0F82003022803DA0520574908703C
:1017300037E75348006805280AD158480068192837
:1017400006DB544901EBC60000F0B0F862E010E09F
:10175000504800EBC60150480068401E4D4A02EB5D
:10176000C00205CA05C14C480068401E4A490860CD
:1017700050E04B490A980968884231D148490B9892
:10178000496888422CD10F20009045488088C0EBE2
:1017900000102F3083B242480088C0EB0010C01DFB
:1017A00081B20F22002000F0CDFE3C480068401CB2
:1017B0003A4908603448D0F82003642806DA3248F1
:1017C000D0F82003401C3049C1F82003142000F059
:1017D0004FFBC82033490860314800F067F819E032
:1017E0002948D0F82003401E274901EBC00103C956
:1017F000CDE902010F2000900398C0EB00102F30BC
:1018000083B20298C0EB0010C01D81B20F220020ED
:1018100000F098FE1C48D0F82003441E09E01A4846
:1018200000EBC401601E184A02EBC00205CA05C1E4
:10183000641E002CF3DC1448DDE90A1206C0E868D7
:1018400068B119480068401C1749086008460068DC
:101850001E2804DDFFF7AAFD00201349086068690F
:10186000401C40B10D4968690968884203DC0620C4
:101870000649087095E600BF93E60000640000206A
:101880003C00002068000020980100203800002063
:10189000C4040020EC0400202C00002030000020B4
:1018A000240000200C000020480000207CB50446E5
:1018B0002C480068052813D12B48006802280DDB4E
:1018C00029480068022801D1032011E02648006859
:1018D000032801D104200BE0052009E0002007E0E7
:1018E0002048006800EB4000204901EBC000806800
:1018F00005461C480068052807D11B4800680428D5
:1019000001DB012009E0002007E01648006800EB39
:101910004000164901EBC0000069064600BFFEF713
:101920007FFC0F2190FBF1F201FB12000090FEF70B
:1019300077FC0F2190FBF1F201FB12000190002DCA
:1019400001DD012000E0002002463346DDE9000110
:1019500000F04EF90028E2D1DDE90001C4E9000100
:101960007CBD00003C0000205800002068000020E2
:1019700000BFFEE708B50020009000F0F7FC00F083
:101980004DFD00F023FE00F0F7F900F00FF800F035
:101990008BFC02E00098401C009042F2107100980D
:1019A0008842F7DB0098FEF7B1FD08BD0A48806960
:1019B00040F00800084988610848006820F00F00DE
:1019C000064908600846006840F003000860881572
:1019D000024910310860704700100240040C0140B9
:1019E0001F48806940F044001D4988611D48006817
:1019F00020F00F001B4908600846006840F008000E
:101A0000086018480C30006820F0010015490C31BE
:101A100008601548006820F47060134908600846A3
:101A2000006840F4006008600F480C30006840F027
:101A300004000D490C3108600B48006820F4704028
:101A4000094908600846006840F4004008600648FC
:101A50000C30006840F0080003490C310860704702
:101A60000010024000080140001801401148806940
:101A700040F048000F4988610F48006820F470006A
:101A80000D4908600846006840F4401008600B48A3
:101A9000006820F47000094908600846006840F4B6
:101AA00040100860202004491031086003491031BB
:101AB0000860704700100240000C0140001801400F
:101AC00070B50546052D28D2DFE805F003040510A2
:101AD000150000BF22E0002405E0134901EBC4001B
:101AE000FFF7E4FE641C032CF7DB17E00E48183008
:101AF000FFF7DCFE12E00C482030FFF7D7FE002491
:101B000005E00A4901EBC400FFF7D0FE641C022C7B
:101B1000F7DB02200649086000E000BF00BF01209B
:101B20000449086070BD0000C4040020EC040020DB
:101B30002C0000205400002070B50446274800689F
:101B4000052190FBF1F526480068854204DD284612
:101B5000FFF7B6FF22480560182222492046FEF70B
:101B600012FD1F480068012801DB012060601C484D
:101B70000068022801DB0320A060194800680328E0
:101B800003DB0420A0600120E06015480068042801
:101B900003DB0520A060012020611048006819289F
:101BA0001ADB0E480068052190FBF1F201FB1200E0
:101BB00090B90A4800680C49096888420CD00B4863
:101BC00000683C2804DD09480068143807490860AB
:101BD000024800680449086070BD00003000002021
:101BE00058000020E00000205C000020440000209D
:101BF0003FB539480068052813D1384800680228E5
:101C00000DDB36480068022801D1032011E033487B
:101C10000068032801D104200BE0052009E0002022
:101C200007E02D48006800EB40002D4D05EBC0009B
:101C300080680446002110E02A4D55F83150009884
:101C4000A84209D1274D05EBC10501986D68A8424E
:101C500002D1012004B030BD491C2248D0F8200335
:101C60008842E9DC9AB100210FE01F4D55F8315050
:101C70000098A84208D11C4D05EBC10501986D687C
:101C8000A84201D10120E5E7491CA142EDDBABB13F
:101C900000210FE0154D55F831500098A84208D1A9
:101CA000124D05EBC10501986D68A84201D10120D4
:101CB000D0E7491C0E4800688142EBDB0D4D0098CF
:101CC0002D68A84206D10B4D01986D68A84201D13C
:101CD0000120BFE70020BDE73C00002058000020A5
:101CE0006800002098010020C4040020EC040020BB
:101CF0002C0000202400002002461A48007888B9F1
:101D0000192903DB782901DC002070477D2903DBDA
:101D1000B42901DC0020F8E7C32921DBF0291FDC0E
:101D20000020F2E70F48007801280AD10A2A17DBC1
:101D3000E62A15DC142913DBB1F58C7F10DC0020BA
:101D4000E3E70848007802280AD1462908DBB1F504
:101D5000877F05DC0A2A03DBE62A01DC0020D4E7C2
:101D60000120D2E73800002001B500BF0098411ED5
:101D700000910028FAD108BD0F48806940F00800A2
:101D80000D4988610D4800680D4908400B490860FD
:101D90000846006840F44E30086008480830006883
:101DA00040F480600549083108600846006820F466
:101DB000C05008607047000000100240040C014051
:101DC000FF00F0FF10B5084800780849087000F0DF
:101DD00011F80549087008460078044909788843D5
:101DE0000349087010BD00001C0000201D000020E9
:101DF0001E00002070B500251A48006840F40060FD
:101E000018490860C820FFF7AFFF1648006820F4A3
:101E1000006014490860C820FFF7A6FF00241DE0F9
:101E20001048001F006800F4806018B90120A0402D
:101E30002843C5B20B48006840F480500949086047
:101E4000C820FFF791FF0748006820F4805005493B
:101E50000860C820FFF788FF601CC4B2082CDFDBD5
:101E6000284670BD0C0C014000BFFEE7704770476C
:101E700010B50446FEF78AFC204600F0C5FAFEF7CE
:101E80007DFC10BD704710B500F002F810BD0000D9
:101E90000CB50020019000903348006840F4803079
:101EA0003149086000BF3048006800F400300090FD
:101EB0000198401C0190009818B90198B0F5A06FE6
:101EC000F1D12948006800F4003010B101200090E1
:101ED00001E0002000900098012843D123480068C9
:101EE00040F01000214908600846006820F0030017
:101EF00008600846006840F0020008601A48406820
:101F0000194948600846406848600846406840F4FF
:101F1000806048600846406820F47C1048600846AD
:101F2000406840F4E81048600846006840F080705F
:101F3000086000BF0C48006800F000700028F9D06D
:101F40000948406820F00300074948600846406897
:101F500040F00200486000BF0348406800F00C00F9
:101F60000828F9D10CBD00000010024000200240FA
:101F700010B5002428E0FEF753F9F02190FBF1F2B0
:101F800001FB1200124901EB04110860FEF748F949
:101F90004FF4A07190FBF1F201FB12000C4901EB30
:101FA00004114860FEF73CF9032190FBF1F201FBBC
:101FB0001200401C064901EB04118860002004490E
:101FC00001EB0411C860641C3C2CD4DB10BD000084
:101FD000FC04002000B5002310E00A4A02EB0312C3
:101FE0005168084A02EB03121068FFF785FE20B91A
:101FF0000020044901EB0311C8605B1C3C2BECDBA7
:1020000000BD0000FC040020F8B5002479E03E4843
:1020100000EB0410C068D8B13B4A02EB04125168CF
:10202000394A02EB04121068FFF766FE05467DB1DF
:1020300001200090344800EB0410808883B23248BD
:1020400000EB0410008881B20122002000F07AFA2F
:102050002D4800EB041040682B4901EB04118968FE
:102060000844294901EB04114860274800EB04109B
:102070004068B0F5A07F1BDB0020234901EB041171
:102080004860FEF7CDF8F02190FBF1F201FB120061
:102090001D4901EB04110860FEF7C2F8032190FB13
:1020A000F1F201FB1200401C174901EB041188609A
:1020B000154A02EB04125168134A02EB041210682D
:1020C000FFF71AFE0646B6B1012000900E4800EB5D
:1020D0000410808883B20C4800EB0410008881B2A1
:1020E00001224FF6FF7000F02DFA0120064901EBA6
:1020F0000411C86004E00020034901EB0411C8602A
:10210000641C3C2C83DBF8BDFC04002070470000FD
:1021100010B51348006840F00100114908600846F6
:102120004068104908400E494860084600680E495A
:1021300008400B4908600846006820F480200860C9
:102140000846406820F4FE0048604FF41F00886095
:10215000FFF799FE4FF000600449086010BD0000D1
:10216000001002400000FFF8FFFFF6FE08ED00E05F
:102170002DE9F84305460C4616461F462046FEF755
:10218000E3F98046F021A1EBC80000EBD0714FEAE3
:1021900061091FFA89F0334622462946009700F06C
:1021A00085FBBDE8F883000010B5002434480088A2
:1021B00000F00100002861D03148008820F00100C3
:1021C0002F4908802F480068002807DDFEF7F2FA43
:1021D0002C4800680A382B49086004E0FEF7E4FA4E
:1021E00000202849086028480068002825DD264886
:1021F0000068401E24490860002424480068012823
:1022000001D10A2404E021480068022800D11924E1
:10221000002C1ADD1E480068401C1D490860084655
:102220000068A04211DB1B48006880F020001949BB
:10223000086000201649086007E01448006820B1D3
:10224000FEF7ACFA00201149086013480078032813
:1022500011D1124800680A30104908600846006829
:102260000F490968884209DB01200E4908600020F7
:102270000A49086002E000200849086010BD00001B
:10228000100400400C00002010000020140000206A
:10229000180000200C0C0140380000202000002015
:1022A000440000200800002010B51C48C06940F020
:1022B00002001A49C86141F61F401949088063208D
:1022C000091D088016481C38008840F00100144998
:1022D0001C39088012482838008840F00100104955
:1022E000283908801D200121002807DA0A07140E6A
:1022F0000C4A00F00F031B1FD45403E00A07130E0F
:10230000094A135400BF1D20012181404209920057
:1023100002F1E022C2F8001100BF10BD001002401F
:102320002804004018ED00E000E400E007480068E1
:10233000052809D10648006806490968884203DD76
:102340000348006803490860704700003C00002013
:10235000300000203400002000BFFEE730380A289B
:1023600001D20120704700207047000007210020A3
:10237000204A126842F480321E4B1A6000BF1D4A88
:102380001268520C002AFAD04FF48062194B5A603E
:102390001A46526822F460525A601A46526842EA5B
:1023A00081425A601A46526842F480325A60124A98
:1023B000126842F03202104B1A600E4A126842F064
:1023C00080720C4B1A6000BF0A4A1268520E002A33
:1023D000FAD0084A526842F00202064B5A6005E001
:1023E000044A5268C2F3870000F003000228F7D1C4
:1023F000704700000010024000200240002100E071
:10240000491C8142FCD37047002100E0491C40F286
:1024100071224243B1EB021FF8D3704710B5FFF7AA
:1024200025FBFFF7DDFAFFF7C1FA10BD10B501205B
:1024300000F068FA112000F065FA3A2000F062FA24
:10244000552000F059FA292000F05CFA362000F0FF
:1024500059FAC82000F050FA10BD704738B504464C
:102460004FF4A0700023F02219460090204600F09F
:1024700069F838BD70B504460D4616462A2000F0AE
:1024800041FA201200F038FAE0B200F035FA0120EB
:1024900000F032FA3F2000F02FFA2B2000F032FA41
:1024A000281200F029FAE8B200F026FA012000F024
:1024B00023FADF2000F020FA2C2000F023FA304627
:1024C00000F01AFA70BD2DE9F04781460D46164618
:1024D0001F46DDF82080002407E0291988B24A460B
:1024E0003146FFF7C7FF601C84B2BC42F5DB002415
:1024F0000AE006EB0802521E91B22A1990B24A462F
:10250000FFF7B8FF601C84B2BC42F2DB002407E096
:10251000301981B24A462846FFF7ACFF601C84B2EE
:102520004445F5DB002409E0321991B2EA19521E44
:1025300090B24A46FFF79EFF601C84B24445F3DB2D
:10254000BDE8F0872DE9F04781460C4616461D464A
:10255000089F4FF000082A2000F0D4F9201200F064
:10256000CBF9E0B200F0C8F93119491EC1F30F20D0
:1025700000F0C2F93119491EC8B200F0BDF92B2094
:1025800000F0C0F9281200F0B7F9E8B200F0B4F991
:102590007919491EC1F30F2000F0AEF97919491ECF
:1025A000C8B200F0A9F92C2000F0ACF96420FFF7C4
:1025B00025FF00BF04E0484600F09EF908F101083D
:1025C00006FB07F04045F6D8BDE8F08710B5564841
:1025D000406940F48070544948610846806940F081
:1025E000080088610846806940F02000886108463C
:1025F000806940F0400088610846806940F480703E
:1026000088614A48006820F00F0048490860084681
:10261000006840F0030008604548006845490840EC
:102620004349086008460068434908434049086038
:10263000081F006800F0FF20091F086008460068B6
:1026400040F0BB1008603D48006800203B4908602E
:102650000846006840F0BB300860081F006820F0A2
:102660007040091F08600846006840F0304008606C
:102670003348406820F4702031494860084640687B
:1026800040F4302048600846006820F00F000860E1
:102690000846006840F00B00086000204FF0204121
:1026A0008861C861274908604FF02040806940F484
:1026B00080504FF0204188610846806940F4804096
:1026C00088610846806940F0100088610846C0694A
:1026D000C8610846C06940F00100C8610846C06989
:1026E00040F47060C86117480068C1F81C011548C3
:1026F0000068C1F81C010846D0F81C0140F4407085
:10270000C1F81C010846806940F001008861FFF7AC
:102710008DFEFFF7A2FE05480C30006840F0010076
:1027200002490C31086010BD00100240000C01404D
:102730000414014000F0FF00BB0B00BB0418014073
:10274000002001401C0100A02DE9FF4F81B082460E
:102750008B4614467F2C02DD05B0BDE8F08FA4F156
:102760002000C4B2D04600253BE0204800EB041016
:10277000465D1E4800EB0411681C0F5CD946002022
:10278000009025E0304606EBD0714910A6EB4101E0
:10279000012906D109F1080081B24046049AFFF7E9
:1027A00069FE384607EBD0714910A7EB41010129BA
:1027B00004D149464046049AFFF75CFE76107F102C
:1027C00009F101001FFA80F90098401C80B20090C6
:1027D00000980828D6DB08F101001FFA80F8A81C31
:1027E00085B2102DC1DB00BFB6E70000C82C000881
:1027F0002DE9F84F06468846174699460A2F01DB11
:10280000BDE8F88F00244BE0C4F10F00404480B2D3
:102810000090254800EB471010F814A0224800EB68
:102820004710012101EB440110F801B0002515E02B
:102830000AF0800030B1711988B24A460099FFF75A
:1028400019FE05E0711988B20A9A0099FFF712FE85
:102850004FEA4A604FEA106A681CC5B2082DE7DBF0
:10286000002519E00BF0800040B106F10801294471
:1028700088B24A460099FFF7FDFD07E006F108011E
:10288000294488B20A9A0099FFF7F4FD4FEA4B6099
:102890004FEA106B681CC5B2082DE3DB601CC4B2A4
:1028A000102CB1DB00BFABE7B83200082DE9F843CC
:1028B00005460E4614461F46DDF8208016E0E82D3A
:1028C00003DD002506F1100086B2B6F5987F01DD24
:1028D00000260025CDF8008022783B463146284668
:1028E000FFF732FF05F1080085B2641C207800284C
:1028F000E5D1BDE8F8830000014908807047000079
:102900000008006C0149088070470000FE07006C59
:10291000FFF730F8FFF72CFB0020994908702DE1F4
:10292000FFF750FA9648007838B1954800780128AA
:1029300003D093480078022801D1FFF765FB904847
:102940000078032801D1FEF7FBFB8D4800780728AB
:102950001DD2DFE800F0041D3D7E91CFF100FEF7AF
:1029600043FB10E0FFF750FB0A20FFF74DFDFFF798
:1029700029FA8448007800F0080020B1012080493D
:102980000870814908607E4800780028EAD0F4E0A9
:102990007D48006820B1FEF761F900207A4908609F
:1029A00011E0FFF731FB0A20FFF72EFDFFF70AFACF
:1029B0007448007800F0080028B1022070490870BF
:1029C0000120724908606E4800780128E9D0D4E0FF
:1029D0006E48006820B1FEF7E3F900206B490860FB
:1029E000FFF712FB0A20FFF70FFD6648007800B3DF
:1029F0006448007800F0100058B16548006800286D
:102A000026DD63480068401E61490860FEF7F4F95E
:102A10001EE05C48007800F0200058B15C48006877
:102A2000052815DA5A480068401C59490860FEF725
:102A3000E3F90DE05348007800F0080040B1544835
:102A4000006854490860FEF703FC03204C490870F5
:102A500093E05148006820B1FEF724FD00204E4964
:102A600008604E48006830B1FEF766FDFDF7AAFE2B
:102A700000204A49086080E0FEF7FAF935E00A20B4
:102A8000FFF7C2FCFFF79EF93E48007868B33D4867
:102A9000007800F0400028B1002041490860FEF7AE
:102AA000E7F922E03748007800F0800028B10120E3
:102AB0003B490860FEF7DCF917E03248007800F087
:102AC000080090B13648006830B903202C490870DE
:102AD00001203149086005E00220294908700120E1
:102AE0002A4908603220FFF7C3F9254800780428F6
:102AF000C5D042E0FFF71AFC02202A4908604FF4D3
:102B0000967029490860FEF70BF80FE00A20FFF7DE
:102B10007BFCFFF757F91B48007800F0080028B14C
:102B200002201749087001201849086014480078ED
:102B30000528EBD021E0FFE7FFF7F8FB012019495A
:102B400008604FF4967018490860FEF749F80FE0E6
:102B50000A20FFF759FCFFF735F90A48007800F022
:102B6000080028B1022006490870012007490860C2
:102B7000034800780628EBD000BF00BFD0E6000075
:102B8000380000201E00002004000020000000206B
:102B9000400000203C0000205400002008000020DD
:102BA0005000002014000020100000200000000051
:102BB0000000000000000000000000000000000015
:102BC00001010101010000000000000000000101FE
:102BD00001010101010000000000000001010101EC
:102BE00001010101010000000000010101010101DA
:102BF00001010101010000000101010101010101C8
:102C000001010101010000010101010101010101B6
:102C100001010101000001010101010101010101A6
:102C20000101010000010104010101010101010193
:102C30000101000000010104040101010101010181
:102C4000000000000001010101010101010100007B
:102C5000000000000000010103010100000000006D
:102C6000000000000000020203000000000000005D
:102C70000000000000000202000000000000000050
:102C80000000000000000000000000000000000044
:102C9000683A0008703A0008783A0008803A00085C
:102CA000883A0008903A0008000000000100000087
:102CB00000000000FFFFFFFF010000000000000017
:102CC000FFFFFFFF00000000000000000000000008
:102CD00000000000000000000000000000001FCC09
:102CE000000C000000000000000008003000600040
:102CF0000800300060000000022003FC1E200220BB
:102D000003FC1E200220000000000E1811043FFFEB
:102D100010840C78000000000F0010840F3800C0F1
:102D2000077818840078000000780F8410C41124FC
:102D30000E9800E40084000808006800700000009D
:102D4000000000000000000000000000000007E09C
:102D50001818200440020000000040022004181847
:102D600007E00000000000000240024001800FF078
:102D700001800240024000000080008000800FF8C7
:102D800000800080008000000001000D000E0000A7
:102D900000000000000000000000008000800080B3
:102DA00000800080008000800000000C000C00000B
:102DB0000000000000000000000000060018006095
:102DC0000180060018002000000007F00808100429
:102DD0001004080807F000000000080408041FFCA5
:102DE000000400040000000000000E0C1014102469
:102DF000104411840E0C000000000C181004110483
:102E0000110412880C700000000000E0032004246C
:102E100008241FFC0024000000001F9810841104E7
:102E20001104108810700000000007F008881104D9
:102E3000110418880070000000001C00100010FC35
:102E400013001C001000000000000E381144108414
:102E5000108411440E38000000000700088C104454
:102E60001044088807F00000000000000000030C78
:102E7000030C00000000000000000000000101063B
:102E8000000000000000000000000080014002205F
:102E90000410080810040000022002200220022072
:102EA0000220022002200000000010040808041084
:102EB000022001400080000000000E001200100CF3
:102EC000106C10800F00000003E00C1813E41424B1
:102ED00017C4082807D000000004003C03C41C40AD
:102EE000074000E4001C000410041FFC110411043E
:102EF00011040E880070000003E00C181004100488
:102F0000100410081C10000010041FFC1004100412
:102F10001004080807F0000010041FFC110411043D
:102F200017C410040818000010041FFC110411003D
:102F300017C010000800000003E00C181004100473
:102F400010441C780040000010041FFC1084008016
:102F5000008010841FFC10040000100410041FFCEB
:102F60001004100400000000000300011001100113
:102F70001FFE10001000000010041FFC110403804D
:102F80001464181C1004000010041FFC100400043A
:102F900000040004000C000010041FFC1F0000FCD3
:102FA0001F001FFC1004000010041FFC0C04030091
:102FB00000E010181FFC100007F0080810041004AF
:102FC0001004080807F0000010041FFC1084108093
:102FD000108010800F00000007F008181024102443
:102FE000101C080A07F2000010041FFC1104110055
:102FF00011C011300E0C000400000E1C11041084CE
:10300000108410441C3800001800100010041FFC2D
:10301000100410001800000010001FF81004000435
:10302000000410041FF8100010001E0011E0001C26
:10303000007013801C0010001FC0103C00E01F0037
:1030400000E0103C1FC000001004180C163401C032
:1030500001C01634180C100410001C00130400FCEE
:1030600013041C00100000000804101C10641084DD
:1030700013041C04101800000000000000007FFE74
:103080004002400240020000000030000C000380BB
:103090000060001C000300000000400240024002EB
:1030A0007FFE000000000000000000002000400043
:1030B000400040002000000000010001000100016C
:1030C000000100010001000100004000400020005C
:1030D00000000000000000000000009801240144EE
:1030E0000144014400FC000410001FFC008801049E
:1030F00001040088007000000000007000880104D6
:103100000104010400880000000000700088010430
:10311000010411081FFC0004000000F801440144F0
:103120000144014400C800000000010401040FFC38
:103130001104110411001800000000D60129012912
:10314000012901C90106000010041FFC00840100D0
:103150000100010400FC000400000104190419FC32
:103160000004000400000000000000030001010151
:10317000190119FE0000000010041FFC002400408B
:1031800001B4010C010400000000100410041FFC35
:103190000004000400000000010401FC010401001F
:1031A00001FC0104010000FC010401FC0084010099
:1031B0000100010400FC0004000000F80104010407
:1031C0000104010400F80000010101FF0085010471
:1031D00001040088007000000000007000880104F5
:1031E0000104010501FF00010104010401FC008448
:1031F0000104010001800000000000CC0124012432
:10320000012401240198000000000100010007F8DA
:103210000104010400000000010001F800040004A2
:103220000004010801FC0004010001800170000C91
:10323000001001600180010001F0010C003001C0AC
:103240000030010C01F0010000000104018C007449
:103250000170018C01040000010101810171000E67
:10326000001801600180010000000184010C01349C
:1032700001440184010C0000000000000000000077
:1032800001003EFC4002400200000000000000007F
:10329000FFFF0000000000000000400240023EFC72
:1032A00001000000000000000000600080008000BD
:1032B0004000400020002000073F7F3F6032603226
:1032C000603661B47FB46634663666336631663123
:1032D0006631E7B7FE3600307FFF40004064466647
:1032E00044404CFF4CCC5CC47DFF556C4444447F4F
:1032F000447EC444C444847F3060306031FE304634
:10330000B042BDFFB9FFB000B0FE208220FE2030E9
:1033100031FE791049FFC0307BE0508067E052A059
:103320004FE04AA053E06080438047E04D60492071
:103330004920408000800000088005000200050050
:10334000088002003FF804000900388033E009409B
:10335000094009E0024002000880118021203088E5
:103360008979200027FC2511251127FC27FC251130
:103370002511251E240800000000000000000000A8
:10338000000000000000000000000000000000003D
:10339000000000000000000000000000000000002D
:1033A000000000000000000000000000000000001D
:1033B000000000000000000000000000000000000D
:1033C00000000000000000000000000000000000FD
:1033D00000000000000000000000000000000000ED
:1033E00000000000000000000000000000000000DD
:1033F00000000000000000000400000800000000C1
:103400000000000200010000100000002020202029
:1034100020202020202020202020202020202020AC
:10342000202020202020202020202020202020209C
:10343000202020200000000020202020202020200C
:10344000202020202020424242424242422020208E
:10345000202020202020202020202020202020206C
:1034600000000000202020202020202020202020DC
:103470002020425959595964474742202020202092
:1034800020202020202020202020202000000000BC
:1034900020202020202020202020202042797979FF
:1034A000797979644747422020202020202020205D
:1034B000202020202020202000000000202020208C
:1034C00020202020202020202042797979797979C4
:1034D0006447474220202020202020202020202038
:1034E000202020200000000020202020202020205C
:1034F00020202020204242674747474767424242F8
:103500004220202020202020202020202020202099
:103510000000000020202020202020202020204209
:10352000422020204259595959644764674220205B
:10353000202020202020202020202020000000000B
:1035400020202020202020202020204242674747A2
:1035500047474747474747476742422020202020A8
:1035600020202020202020200000000020202020DB
:10357000202020202042424252422042797979790B
:103580007979644764674220202020202020202071
:1035900020202020000000002020202020202020AB
:1035A00020204264674247474747474747474747C6
:1035B0004747474220202020202020202020202074
:1035C0000000000020202020202020202042524205
:1035D00052422042595959595959796447646742AE
:1035E000202020202020202020202020000000005B
:1035F0002020202020202020202042525242204201
:1036000059595959595979644764674220202020F3
:10361000202020202020202000000000202020202A
:103620004242202020202020204242424242424268
:103630004242424242424242422020202020202058
:1036400020202020000000002020202020202020FA
:10365000202020204279797979797964474742425C
:1036600042424242422020202020202020202020B0
:10367000000000002020204247422020202020423D
:103680004279797959795979597959797979794298
:103690004220202020202020202020200000000088
:1036A00020202020202020202042646742474747D6
:1036B00047474767424747474747476742202020D9
:1036C000202020202020202000000000202020207A
:1036D00020202020204264674247474747474764ED
:1036E00047647959596447474742202020202020C9
:1036F000202020200000000020202020202020204A
:103700002020204252524279797979795959595970
:103710007964474747422020202020202020202075
:10372000000000002020202020202020204264676C
:103730004247474747474242476479595959596474
:1037400047422020202020202020202000000000B0
:10375000202020202020202020204264675942522F
:10376000524747476479595959597964474220204B
:1037700020202020202020200000000020202020C9
:1037800020202020204264674267476747474764FC
:1037900047647959595979644742202020202020D4
:1037A0002020202000000000202020202020202099
:1037B0002042646742474747476734474747476463
:1037C00064474767644220202020202020202020BA
:1037D00000000000202020202020202020426742DE
:1037E0006479797979796447474767676767676775
:1037F00067422020202020202020202000000000E0
:103800002020202020202020202042427979797910
:10381000797964474747426767676767674242202D
:103820002020202020202020000000002020202018
:1038300020202020202042646742424252424220FF
:10384000476479595959596447474220202020201C
:10385000202020200000000020204247422020207D
:1038600020425959474747474747474747474747F0
:1038700047474747797942202020202020202020D8
:10388000000000002020202020202020204264670B
:103890005942473442423442204764795959595970
:1038A00059644742202020202020202000000000D2
:1038B00020202020202020204267674279797979D2
:1038C0007964474747476767676764676767644224
:1038D0002020202020202020000000002020202068
:1038E000202020202020204264675252424242423F
:1038F0006479797979797964676467422020202036
:103900002020202000000000202042474747794225
:1039100064794747474747474747474747474747E8
:103920004747474767676742202020202020202004
:103930000000000020202020426742674747474799
:1039400064797979796467474747474747476767A5
:1039500067646767422020202020202000000000AC
:1039600020202042676764424747474747476442F1
:103970004242426464646464646464646467676764
:10398000422020202020202000000000202042474C
:103990004759422042647947474747474747474787
:1039A00047474747474747474767647942202020B2
:1039B00020202020000000002020202020424267FC
:1039C00067474767646764797979796467474747E8
:1039D00047474747474747676464422020202020E5
:1039E000000000002020202020202042676764671C
:1039F0004279797979796447474747674242424734
:103A000047474767676442202020202000000000CD
:103A100020202020202042676767674264797979F7
:103A2000796464674747474747474747474747479A
:103A30006467422020202020000000002020202059
:103A400020202042676764674279797979796447F1
:103A5000474747474747474747474767476467429E
:103A600020202020000000004C6576656C2031008D
:103A70004C6576656C2032004C6576656C203300B1
:103A80004C6576656C2034004C6576656C2035009D
:103A9000496E66696E697479204D6F646500000037
:103AA000C03A000800000020980100006C010008E6
:103AB0006C3B000898010020680E0000C801000857
:103AC0003201290401441AFF01E91069140213C8E4
:103AD00032050A11B48032085AA018B203320A5AC9
:103AE0008C189A0438320C5A7810295469D4290C4D
:103AF0000A1596A81338341B08E8041340351B0830
:103B0000980413A0361408A8371B08CC081A7C08A0
:103B10001A24041384381B082C041A500C1ADC08CD
:103B20001AF81C1AF02C1AC4041A6C041A14041A79
:103B300064441ABC041A90041A48201119281AD493
:103B4000301AB00813E43914083C3A1B0810041A60
:103B5000B80C1A34041A60041A08041A8C041A588F
:0C3B6000241A74341A1C041A0C40A90426
:040000050800025598
:00000001FF
