:020000040800F2
:1000000068060020CD010008C9020008C1020008EE
:10001000C50200087F0200081D040008000000005F
:10002000000000000000000000000000CD020008F9
:100030008302000800000000CB020008B90300089A
:10004000E7010008E7010008E7010008E7010008F0
:10005000E7010008E7010008E7010008E7010008E0
:1000600085020008E7010008E7010008E701000831
:10007000E7010008E7010008E7010008E7010008C0
:10008000E7010008E7010008E7010008E7010008B0
:10009000E7010008E7010008E7010008E7010008A0
:1000A000E7010008E7010008E7010008E701000890
:1000B000E7010008E7010008E7010008E701000880
:1000C000E7010008E7010008E7010008E701000870
:1000D000E7010008E7010008E7010008E701000860
:1000E000E7010008E7010008E7010008E701000850
:1000F000E7010008E7010008E7010008E701000840
:10010000E7010008E7010008E7010008E70100082F
:10011000E7010008E7010008E7010008E70100081F
:10012000E7010008E7010008E7010008E70100080F
:1001300000F002F800F03AF80AA090E8000C8244BF
:100140008344AAF10107DA4501D100F02FF8AFF29C
:10015000090EBAE80F0013F0010F18BFFB1A43F0A5
:10016000010318474404000064040000103A24BF4F
:1001700078C878C1FAD8520724BF30C830C144BF0C
:1001800004680C607047000000230024002500264E
:10019000103A28BF78C1FBD8520728BF30C148BFEA
:1001A0000B6070471FB51FBD10B510BD00F031F8D2
:1001B0001146FFF7F7FF00F0BFF900F04FF803B466
:1001C000FFF7F2FF03BC00F053F800000948804736
:1001D00009480047FEE7FEE7FEE7FEE7FEE7FEE729
:1001E000FEE7FEE7FEE7FEE704480549054A064B41
:1001F00070470000BD0300083101000868000020BE
:1002000068060020680200206802002070477047DE
:100210007047754600F028F8AE460500694653461B
:1002200020F00700854618B020B5FFF7DDFFBDE8D8
:1002300020404FF000064FF000074FF000084FF04D
:10024000000B21F00701AC46ACE8C009ACE8C009DE
:10025000ACE8C009ACE8C0098D4670470446AFF36E
:1002600000802046FFF7ABFF0048704704000020E5
:1002700001491820ABBEFEE726000200704700BF10
:10028000FEE7704700B500220EE04FF40010094968
:100290000860094800F0C5F82020064908600648B3
:1002A00000F0BFF8501CC2B20A2AEEDB042003495A
:1002B000086000BD100C014040420F0014040140D2
:1002C00000BFFEE700BFFEE770477047704710B5FC
:1002D00000F002F810BD00000CB500200190009065
:1002E0003348006840F480303149086000BF30482E
:1002F000006800F4003000900198401C01900098C4
:1003000018B90198B0F5A06FF1D12948006800F440
:10031000003010B10120009001E000200090009812
:10032000012843D12348006840F0100021490860AB
:100330000846006820F0030008600846006840F0A6
:10034000020008601A484068194948600846406839
:1003500048600846406840F480604860084640684D
:1003600020F47C1048600846406840F4E81048607B
:100370000846006840F08070086000BF0C480068C4
:1003800000F000700028F9D00948406820F0030010
:10039000074948600846406840F00200486000BFD6
:1003A0000348406800F00C000828F9D10CBD00009B
:1003B00000100240002002407047000010B51348B2
:1003C000006840F001001149086008464068104983
:1003D00008400E494860084600680E4908400B492D
:1003E00008600846006820F48020086008464068DD
:1003F00020F4FE0048604FF41F008860FFF767FF9D
:100400004FF000600449086010BD00000010024079
:100410000000FFF8FFFFF6FE08ED00E000BFFEE77A
:10042000704708B50021009102E00099491C009135
:1004300000998142F9D308BD1448806940F0080052
:10044000124988610846806940F040008861104880
:10045000006820F470000E4908600846006840F407
:100460004010086020200A491031086009480068DF
:1004700020F47000074908600846006840F4401006
:1004800008602020034910310860704700100240C6
:10049000000C0140001801402148806940F04000F4
:1004A0001F4988611F48006820F470601D4908607A
:1004B0000846006840F4006008601A480C30006884
:1004C00040F0040017490C3108601548806940F07D
:1004D0000100134988611448806820F47060124953
:1004E00088600846806840F4806088600F48006833
:1004F00040F004000D4908600C480C30006840F0E2
:1005000004000A490C310860652109480170094856
:10051000006840F480704FF0E021C1F8000170479E
:10052000001002400018014000000140000401409A
:1005300008E400E000E100E0FFF77EFFFFF770FF56
:10054000052000F01DF8FFF7A7FF11E0094800683B
:10055000401C084908604FF400100749086007482C
:10056000FFF75FFF2020044908600448FFF759FFA8
:10057000ECE70000000000201018014020A1070057
:1005800010B543075A0D064B1B684FF6FF0403EAEC
:100590000401044B194341EA0203014C236010BDDE
:1005A0000CED00E00000FA05C8050008000000207E
:1005B000040000006C010008CC05000804000020C5
:0C05C00064060000880100080000000034
:04000005080001CD21
:00000001FF
