:020000040800F2
:1000000060060020B1010008FD030008E1020008BD
:10001000F903000863020008510500080000000011
:1000200000000000000000000000000001040008C3
:10003000CD02000800000000FF030008ED040008E6
:10004000CB010008CB010008CB010008CB01000860
:10005000CB010008CB010008CB010008CB01000850
:10006000CB010008CB010008CB010008CB01000840
:10007000CB010008CB010008CB010008CB01000830
:10008000CB010008CB010008CB010008CB01000820
:10009000CB010008CB010008CB010008CB01000810
:1000A000CB010008CB010008CB010008CB01000800
:1000B000CB010008CB010008CB010008CB010008F0
:1000C000CB010008CB010008CB010008CB010008E0
:1000D000CB010008CB010008CB010008CB010008D0
:1000E000CB010008CB010008CB010008CB010008C0
:1000F000CB010008CB010008CB010008CB010008B0
:10010000CB010008CB010008CB010008CB0100089F
:10011000CB010008CB010008CB010008CB0100088F
:10012000CB010008CB010008CB010008CB0100087F
:1001300000F002F800F02CF80AA090E8000C8244CD
:100140008344AAF10107DA4501D100F021F8AFF2AA
:10015000090EBAE80F0013F0010F18BFFB1A43F0A5
:1001600001031847780400008804000000230024DD
:1001700000250026103A28BF78C1FBD8520728BFB7
:1001800030C148BF0B6070471FB51FBD10B510BD13
:1001900000F031F81146FFF7F7FF00F0DBF900F04F
:1001A0004FF803B4FFF7F2FF03BC00F053F8000070
:1001B0000948804709480047FEE7FEE7FEE7FEE7FB
:1001C000FEE7FEE7FEE7FEE7FEE7FEE70448054937
:1001D000054A064B70470000F10400083101000891
:1001E0006000002060060020600200206002002005
:1001F000704770477047754600F028F8AE46050016
:100200006946534620F00700854618B020B5FFF731
:10021000DDFFBDE820404FF000064FF000074FF033
:1002200000084FF0000B21F00701AC46ACE8C00914
:10023000ACE8C009ACE8C009ACE8C0098D4670471D
:100240000446AFF300802046FFF7ABFF004870473D
:100250000000002001491820ABBEFEE72600020086
:10026000704700BFFEE700000848006800F4807097
:1002700028B14FF4807005490831086004E04FF45C
:1002800080700249091D0860704700000C0C014095
:100290002020014908607047100C014020200149CE
:1002A00008607047140C01400748006800F0200007
:1002B00020B1202004490831086003E020200249D1
:1002C000091D0860704700000C180140704701B517
:1002D00002E00098401E009000980028F9D108BD67
:1002E00000BFFEE70A48806940F0080008498861BD
:1002F0000848006820F00F000649086008460068BA
:1003000040F003000860881502491031086070470A
:1003100000100240040C01401F48806940F0440076
:100320001D4988611D48006820F00F001B490860C6
:100330000846006840F00800086018480C30006863
:1003400020F0010015490C3108601548006820F4C0
:100350007060134908600846006840F40060086057
:100360000F480C30006840F004000D490C31086063
:100370000B48006820F4704009490860084600688E
:1003800040F40040086006480C30006840F0080067
:1003900003490C310860704700100240000801401A
:1003A000001801401148806940F048000F498861F9
:1003B0000F48006820F470000D4908600846006886
:1003C00040F4401008600B48006820F470000949B0
:1003D00008600846006840F4401008602020044986
:1003E0001031086003491031086070470010024066
:1003F000000C01400018014000BFFEE77047704745
:10040000704710B500F002F810BD00000CB50020D8
:10041000019000903348006840F480303149086012
:1004200000BF3048006800F4003000900198401C84
:100430000190009818B90198B0F5A06FF1D1294842
:10044000006800F4003010B10120009001E00020AD
:1004500000900098012843D12348006840F0100024
:10046000214908600846006820F00300086008463B
:10047000006840F0020008601A4840681949486066
:100480000846406848600846406840F4806048601C
:100490000846406820F47C1048600846406840F4F4
:1004A000E81048600846006840F08070086000BFAF
:1004B0000C48006800F000700028F9D00948406836
:1004C00020F00300074948600846406840F00200F9
:1004D000486000BF0348406800F00C000828F9D1CC
:1004E0000CBD0000001002400020024070470000D8
:1004F00010B51348006840F0010011490860084633
:100500004068104908400E494860084600680E4996
:1005100008400B4908600846006820F48020086005
:100520000846406820F4FE0048604FF41F008860D1
:10053000FFF767FF4FF000600449086010BD00003E
:10054000001002400000FFF8FFFFF6FE08ED00E09B
:1005500000BFFEE7FFF726FFFFF7C4FEFFF7DCFE54
:1005600037E01C48006800F0040010B9FFF796FE61
:1005700001E0FFF78DFE1748006800F0080088B919
:1005800042F21070FFF7A3FE1248006800F0080066
:1005900040B9FFF789FE00BF0E48006800F0080070
:1005A0000028F9D00C48006800F0010088B142F240
:1005B0001070FFF78CFE0848006800F0010040B1A1
:1005C000FFF752FE00BF0448006800F00100002859
:1005D000F9D1C6E70818014008080140EC050008F9
:0C05E00000000020600600006C01000814
:04000005080001B13D
:00000001FF
