:020000040800F2
:1000000088060020B101000871020008690200089A
:100010006D020008630200081904000800000000D7
:100020000000000000000000000000007502000851
:100030006702000800000000730200086103000866
:10004000CB010008CB010008CB010008CB01000860
:10005000CB010008CB010008CB010008CB01000850
:10006000CB010008CB010008CB010008CB01000840
:10007000CB010008CB010008CB010008CB01000830
:10008000CB010008CB010008CB010008CB01000820
:10009000CB010008CB010008CB010008CB01000810
:1000A000CB010008CB010008CB010008CB01000800
:1000B000CB010008CB010008ED030008CB010008CC
:1000C000CB010008CB010008CB010008CB010008E0
:1000D000CB010008CB010008CB010008CB010008D0
:1000E000CB010008CB010008CB010008CB010008C0
:1000F000CB010008CB010008CB010008CB010008B0
:10010000CB010008CB010008CB010008CB0100089F
:10011000CB010008CB010008CB010008CB0100088F
:10012000CB010008CB010008CB010008CB0100087F
:1001300000F002F800F02CF80AA090E8000C8244CD
:100140008344AAF10107DA4501D100F021F8AFF2AA
:10015000090EBAE80F0013F0010F18BFFB1A43F0A5
:1001600001031847740400008404000000230024E5
:1001700000250026103A28BF78C1FBD8520728BFB7
:1001800030C148BF0B6070471FB51FBD10B510BD13
:1001900000F031F81146FFF7F7FF00F05BF900F0CF
:1001A0004FF803B4FFF7F2FF03BC00F053F8000070
:1001B0000948804709480047FEE7FEE7FEE7FEE7FB
:1001C000FEE7FEE7FEE7FEE7FEE7FEE70448054937
:1001D000054A064B704700008D03000831010008F6
:1001E0008800002088060020880200208802002065
:1001F000704770477047754600F028F8AE46050016
:100200006946534620F00700854618B020B5FFF731
:10021000DDFFBDE820404FF000064FF000074FF033
:1002200000084FF0000B21F00701AC46ACE8C00914
:10023000ACE8C009ACE8C009ACE8C0098D4670471D
:100240000446AFF300802046FFF7ABFF004870473D
:100250002800002001491820ABBEFEE7260002005E
:10026000704700BFFEE7704700BFFEE700BFFEE734
:1002700070477047704710B500F002F810BD0000DD
:100280000CB50020019000903348006840F48030A5
:100290003149086000BF3048006800F40030009029
:1002A0000198401C0190009818B90198B0F5A06F12
:1002B000F1D12948006800F4003010B1012000900D
:1002C00001E0002000900098012843D123480068F5
:1002D00040F01000214908600846006820F0030043
:1002E00008600846006840F0020008601A4840684C
:1002F000194948600846406848600846406840F42C
:10030000806048600846406820F47C1048600846D9
:10031000406840F4E81048600846006840F080708B
:10032000086000BF0C48006800F000700028F9D099
:100330000948406820F003000749486008464068C3
:1003400040F00200486000BF0348406800F00C0025
:100350000828F9D10CBD0000001002400020024026
:1003600000200DE0084951F82010012906D906495E
:1003700051F82010491E044A42F82010411CC8B20E
:100380000A28EFDB704700000000002010B513487A
:10039000006840F0010011490860084640681049B3
:1003A00008400E494860084600680E4908400B495D
:1003B00008600846006820F480200860084640680D
:1003C00020F4FE0048604FF41F008860FFF753FFE1
:1003D0004FF000600449086010BD000000100240AA
:1003E0000000FFF8FFFFF6FE08ED00E00848008877
:1003F00000F0010028B10748006880F0200005499E
:1004000008600348008820F0010001490880704717
:10041000100800400C18014000BFFEE770470000C4
:100420000A48806940F0400008498861084800682F
:1004300020F47000064908600846006840F4401047
:100440000860202002491031086070470010024007
:100450000018014000240125FFF7E0FFFFF7E0FF4F
:1004600000F02AF82F2142F20F7000F033F841F625
:100470001F4140F2E14000F085F801200C4908607E
:1004800014E00B480068012810D10949086015B133
:10049000601C84B201E0601E84B241F28830844264
:1004A00000DD002504B9012502480480E9E70000C9
:1004B000000000203804004000204FF0E0210861D7
:1004C000034848610846006940F00300086170472E
:1004D0008F5F0100274A926942F00802254B9A611A
:1004E000254A126822F47002234B1A601A461268D9
:1004F00042F430021A601F4A926942F001021D4B19
:100500009A611E4A526822F440621C4B5A601A4695
:10051000526842F400625A60164AD26942F00202FE
:10052000144BDA61164A1080121F1180144A143AD3
:10053000128842F4E042124B143B1A801A46128889
:1005400042F400621A800E4A0C3A128842F01002FD
:100550000B4B0C3B1A800A4A2C3A128842F080025C
:10056000074B2C3B1A801A46128842F001021A806F
:100570007047000000100240000C014000000140E4
:100580002C040040114AD26942F004020F4BDA6198
:100590000F4A1080121F11800D4A203A128842F033
:1005A00001020B4B203B1A80094A2C3A128842F078
:1005B0000102074B2C3B1A80064A126842F0804227
:1005C0004FF0E023C3F80021704700000010024004
:1005D0002C08004000E100E0E805000800000020D1
:0805E000880600006C01000810
:04000005080001B13D
:00000001FF
