:020000040800F2
:1000000060060020B10100087102000869020008C2
:100010006D02000863020008C5030008000000002C
:100020000000000000000000000000007502000851
:100030006702000800000000730200086103000866
:10004000CB010008CB010008CB010008CB01000860
:10005000CB010008CB010008CB010008CB01000850
:10006000CB010008CB010008CB010008CB01000840
:10007000CB010008CB010008CB010008CB01000830
:10008000CB010008CB010008CB010008CB01000820
:10009000CB010008CB010008CB010008CB01000810
:1000A000CB010008CB010008CB010008CB01000800
:1000B000CB010008CB010008CB010008CB010008F0
:1000C000CB010008CB010008CB010008CB010008E0
:1000D000CB010008CB010008CB010008CB010008D0
:1000E000CB010008CB010008CB010008CB010008C0
:1000F000CB010008CB010008CB010008CB010008B0
:10010000CB010008CB010008CB010008CB0100089F
:10011000CB010008CB010008CB010008CB0100088F
:10012000CB010008CB010008CB010008CB0100087F
:1001300000F002F800F02CF80AA090E8000C8244CD
:100140008344AAF10107DA4501D100F021F8AFF2AA
:10015000090EBAE80F0013F0010F18BFFB1A43F0A5
:10016000010318478C0E00009C0E000000230024A1
:1001700000250026103A28BF78C1FBD8520728BFB7
:1001800030C148BF0B6070471FB51FBD10B510BD13
:1001900000F031F81146FFF7F7FF00F06BFB00F0BD
:1001A0004FF803B4FFF7F2FF03BC00F053F8000070
:1001B0000948804709480047FEE7FEE7FEE7FEE7FB
:1001C000FEE7FEE7FEE7FEE7FEE7FEE70448054937
:1001D000054A064B7047000065030008310100081E
:1001E0006000002060060020600200206002002005
:1001F000704770477047754600F028F8AE46050016
:100200006946534620F00700854618B020B5FFF731
:10021000DDFFBDE820404FF000064FF000074FF033
:1002200000084FF0000B21F00701AC46ACE8C00914
:10023000ACE8C009ACE8C009ACE8C0098D4670471D
:100240000446AFF300802046FFF7ABFF004870473D
:100250000000002001491820ABBEFEE72600020086
:10026000704700BFFEE7704700BFFEE700BFFEE734
:1002700070477047704710B500F002F810BD0000DD
:100280000CB50020019000903348006840F48030A5
:100290003149086000BF3048006800F40030009029
:1002A0000198401C0190009818B90198B0F5A06F12
:1002B000F1D12948006800F4003010B1012000900D
:1002C00001E0002000900098012843D123480068F5
:1002D00040F01000214908600846006820F0030043
:1002E00008600846006840F0020008601A4840684C
:1002F000194948600846406848600846406840F42C
:10030000806048600846406820F47C1048600846D9
:10031000406840F4E81048600846006840F080708B
:10032000086000BF0C48006800F000700028F9D099
:100330000948406820F003000749486008464068C3
:1003400040F00200486000BF0348406800F00C0025
:100350000828F9D10CBD0000001002400020024026
:100360007047000010B51348006840F001001149C3
:10037000086008464068104908400E494860084631
:1003800000680E4908400B4908600846006820F4E0
:10039000802008600846406820F4FE0048604FF462
:1003A0001F008860FFF767FF4FF000600449086096
:1003B00010BD0000001002400000FFF8FFFFF6FE35
:1003C00008ED00E000BFFEE706E042F2107100E039
:1003D000491E0029FCD1401E0028F6D1704710B5F7
:1003E000012000F041FA3220FFF7EEFF112000F06B
:1003F0003BFA7820FFF7E8FF3A2000F035FA552065
:1004000000F02CFA362000F02FFAC82000F026FA6F
:10041000292000F029FA10BD70472DE9F05F8346CE
:100420000C4616461D460A9F4FF00008A019401EB4
:100430001FFA80F9E819401E1FFA80FA2A2000F0FE
:1004400013FA201200F00AFAE0B200F007FA4FEABD
:10045000292000F003FA09F0FF0000F0FFF92B203B
:1004600000F002FA281200F0F9F9E8B200F0F6F90B
:100470004FEA2A2000F0F2F90AF0FF0000F0EEF94E
:100480002C2000F0F1F900BF04E0584600F0E6F936
:1004900008F1010806FB07F04045F6D8BDE8F09FDB
:1004A00010B55648406940F4807054494861084688
:1004B000806940F0080088610846806940F02000AB
:1004C00088610846806940F040008861084680697C
:1004D00040F4807088614A48006820F00F00484965
:1004E00008600846006840F003000860454800685E
:1004F00045490840434908600846006843490843A5
:1005000040490860081F006800F0FF20091F0860CC
:100510000846006840F0BB1008603D4800680020B5
:100520003B4908600846006840F0BB300860081F7F
:10053000006820F07040091F08600846006840F01D
:10054000304008603348406820F4702031494860EA
:100550000846406840F4302048600846006820F0B3
:100560000F0008600846006840F00B00086000209B
:100570004FF020418861C861274908604FF0204052
:10058000806940F480504FF02041886108468069BE
:1005900040F4804088610846806940F0100088611E
:1005A0000846C069C8610846C06940F00100C861DA
:1005B0000846C06940F47060C86117480068C1F817
:1005C0001C0115480068C1F81C010846D0F81C0140
:1005D00040F44070C1F81C010846806940F00100F9
:1005E0008861FFF7FCFEFFF717FF05480C30006835
:1005F00040F0010002490C31086010BD00100240BB
:10060000000C01400414014000F0FF00BB0B00BBD4
:1006100004180140002001401C0100A02DE9FE4FFC
:1006200006460F4614469A46F01D1FFA80FB07F156
:100630000F0080B20090202C06DB7E2C04DCE82E1C
:1006400002DCB7F5987F01DDBDE8FE8FA4F1200044
:10065000C4B22A2000F008F9301200F0FFF8F0B21E
:1006600000F0FCF84FEA2B2000F0F8F80BF0FF0048
:1006700000F0F4F82B2000F0F7F8381200F0EEF854
:10068000F8B200F0EBF80099081200F0E7F80099D2
:10069000C8B200F0E3F82C2000F0E6F8002537E0BF
:1006A0004FF000092FE0C9F1070000F0FF08082D06
:1006B0000ADA194800EB041010F818000290C5F18E
:1006C0000700C0B201900DE0134800EB04100121B7
:1006D00001EB4801405C0290A5F10800C0F1070061
:1006E000C0B20190DDE90110084100F0010018B12D
:1006F000504600F0B3F802E00C9800F0AFF809F1B2
:10070000010000F0FF09B9F1080FCCDB681CC5B28D
:10071000102DC5DB00BF97E7400900082DE9FC5FFD
:1007200006460F469046994606F10F001FFA80FADA
:1007300007F10F001FFA80FBE02E02DCB7F5987F6F
:1007400001DDBDE8FC9F2A2000F08EF8301200F099
:1007500085F8F0B200F082F84FEA2A2000F07EF827
:100760000AF0FF0000F07AF82B2000F07DF8381234
:1007700000F074F8F8B200F071F84FEA2B2000F0A6
:100780006DF80BF0FF0000F069F82C2000F06CF819
:10079000002433E01B4800EB481010F814000190CF
:1007A000184800EB4810012101EB4401405C009027
:1007B00000250DE00098284100F0010018B14846DE
:1007C00000F04CF802E00C9800F048F8681CC5B244
:1007D000082DEFDB00250DE00198284100F0010015
:1007E00018B1484600F03AF802E00C9800F036F8EC
:1007F000681CC5B2082DEFDB601CC4B2102CC9DB2D
:1008000000BF9EE7300F00082DE9F84306460F466B
:1008100015469846DDF820902C460DB9BDE8F883C2
:1008200000E0641C20780028FBD1641E11E0E82E53
:1008300003DD002607F1100087B2CDF80090227882
:10084000434639463046FFF7E9FE06F1080086B216
:10085000641EAC42EBD200BFE0E700000149088013
:10086000704700000008006C0149088070470000D4
:10087000FE07006C88B02CA207CA05AB07C32DA2E7
:1008800007CA02AB07C30024FFF70AFE4FF4A070AB
:100890000023F022194600902046FFF7BEFD3220CB
:1008A000FFF792FD4FF6E07305AA64210A20009439
:1008B000FFF7AAFF4FF6E073002264216220009444
:1008C000FFF72CFF4FF6E0730122642172200094A1
:1008D000FFF724FF4FF6E073022264218220009488
:1008E000FFF71CFF47F6FF7302AA82210A2000943B
:1008F000FFF78AFF47F6FF730322822162200094EC
:10090000FFF70CFF47F6FF73042282217220009448
:10091000FFF704FF47F6FF73052282210846009483
:10092000FFF7FCFE00BFFEE731313535323132379B
:100930003939000031313535323133303832000049
:1009400000000000000000000000000000000000A7
:100950000000000000001FCC000C000000000000A0
:100960000000080030006000080030006000000057
:10097000022003FC1E20022003FC1E200220000097
:1009800000000E1811043FFF10840C7800000000D6
:100990000F0010840F3800C007781884007800001A
:1009A00000780F8410C411240E9800E4008400081D
:1009B0000800680070000000000000000000000057
:1009C00000000000000007E01818200440020000AA
:1009D000000040022004181807E00000000000009A
:1009E0000240024001800FF00180024002400000FE
:1009F0000080008000800FF80080008000800000F0
:100A00000001000D000E00000000000000000000CA
:100A10000000008000800080008000800080008056
:100A20000000000C000C00000000000000000000AE
:100A30000000000600180060018006001800200079
:100A4000000007F0080810041004080807F0000070
:100A50000000080408041FFC00040004000000005B
:100A600000000E0C10141024104411840E0C000011
:100A700000000C1810041104110412880C700000FE
:100A8000000000E00320042408241FFC00240000D0
:100A900000001F98108411041104108810700000C9
:100AA000000007F008881104110418880070000085
:100AB00000001C00100010FC13001C0010000000BF
:100AC00000000E3811441084108411440E380000C8
:100AD00000000700088C10441044088807F000004C
:100AE000000000000000030C030C000000000000E8
:100AF00000000000000101060000000000000000EE
:100B000000000080014002200410080810040000CA
:100B100002200220022002200220022002200000E7
:100B200000001004080804100220014000800000AA
:100B300000000E001200100C106C10800F0000005E
:100B400003E00C1813E4142417C4082807D000008D
:100B50000004003C03C41C40074000E4001C0004E7
:100B600010041FFC1104110411040E880070000011
:100B700003E00C1810041004100410081C100000EE
:100B800010041FFC100410041004080807F00000F3
:100B900010041FFC1104110417C4100408180000ED
:100BA00010041FFC1104110017C010000800000001
:100BB00003E00C181004100410441C7800400000DE
:100BC00010041FFC10840080008010841FFC10049F
:100BD0000000100410041FFC1004100400000000AA
:100BE00000030001100110011FFE100010000000A2
:100BF00010041FFC110403801464181C100400006E
:100C000010041FFC1004000400040004000C000089
:100C100010041FFC1F0000FC1F001FFC100400003C
:100C200010041FFC0C04030000E010181FFC10004F
:100C300007F00808100410041004080807F000006A
:100C400010041FFC10841080108010800F00000022
:100C500007F0081810241024101C080A07F20000DE
:100C600010041FFC1104110011C011300E0C0004FF
:100C700000000E1C11041084108410441C38000065
:100C80001800100010041FFC1004100018000000D1
:100C900010001FF810040004000410041FF81000D6
:100CA00010001E0011E0001C007013801C001000DA
:100CB0001FC0103C00E01F0000E0103C1FC00000FF
:100CC0001004180C163401C001C01634180C10049E
:100CD00010001C00130400FC13041C001000000092
:100CE0000804101C1064108413041C041018000065
:100CF0000000000000007FFE4002400240020000B1
:100D0000000030000C0003800060001C00030000A5
:100D100000004002400240027FFE00000000000090
:100D200000000000200040004000400020000000C3
:100D300000010001000100010001000100010001AB
:100D40000000400040002000000000000000000003
:100D500000000098012401440144014400FC000407
:100D600010001FFC008801040104008800700000CE
:100D700000000070008801040104010400880000E4
:100D80000000007000880104010411081FFC000429
:100D9000000000F8014401440144014400C800007F
:100DA0000000010401040FFC1104110411001800DB
:100DB000000000D601290129012901C9010600000E
:100DC00010041FFC008401000100010400FC000469
:100DD00000000104190419FC0004000400000000D4
:100DE0000000000300010101190119FE00000000CC
:100DF00010041FFC0024004001B4010C0104000099
:100E00000000100410041FFC000400040000000097
:100E1000010401FC0104010001FC0104010000FCCB
:100E2000010401FC008401000100010400FC000435
:100E3000000000F8010401040104010400F80000AE
:100E4000010101FF00850104010400880070000019
:100E500000000070008801040104010501FF000189
:100E60000104010401FC0084010401000180000070
:100E7000000000CC01240124012401240198000079
:100E800000000100010007F8010401040000000057
:100E9000010001F8000400040004010801FC000442
:100EA000010001800170000C001001600180010050
:100EB00001F0010C003001C00030010C01F0010014
:100EC00000000104018C00740170018C0104000019
:100ED000010101810171000E001801600180010013
:100EE00000000184010C013401440184010C000064
:100EF000000000000000000001003EFC4002400233
:100F00000000000000000000FFFF000000000000E3
:100F10000000400240023EFC010000000000000012
:100F200000006000800080004000400020002000A1
:100F300008801180212030888979200027FC251124
:100F4000251127FC27FC25112511251E240800004A
:100F50000880050002000500088002003FF8040038
:100F60000900388033E00940094009E002400200EE
:100F70007BE0508067E052A04FE04AA053E06080E1
:100F8000438047E04D6049204920408000800000B8
:100F90007FFF40004064466644404CFF4CCC5CC43C
:100FA0007DFF556C4444447F447EC444C444847FE4
:100FB0003060306031FE3046B042BDFFB9FFB00056
:100FC000B0FE208220FE203031FE791049FFC03073
:100FD000073F7F3F60326032603661B47FB4663471
:100FE00066366633663166316631E7B7FE36003005
:100FF0000010000800000020600600006C010008DE
:04000005080001B13D
:00000001FF
